:020000040800F2
:10000000F0FF01207D6C060825F200086DD704087A
:10001000F56C0608F56C0608F56C06080000000093
:1000200000000000000000000000000021F20008B5
:100030001DF200080000000019F20008059B0408EA
:10004000F56C0608F56C0608F56C0608F56C0608F4
:10005000F56C0608F56C060871E804089DE90408CB
:1000600061E9040825E90408E9E80408913E060866
:10007000813E0608713E0608613E06084D3E0608B0
:10008000393E0608253E0608F56C0608000000000B
:10009000000000000000000000000000ADE80408BF
:1000A000F18504083D860408E1850408618604089A
:1000B000318604082186040811860408895B060835
:1000C000915B06087D5B0608855B0608F56C0608F3
:1000D000F56C0608E19C0408259C0408000000005B
:1000E00035E80408F56C06086D09010800000000F9
:1000F000000000000000000000000000113E0608A3
:10010000000000001D1A060801860408F56C0608A8
:1001100000000000000000000000000000000000DF
:10012000FD3D0608E93D0608D53D0608C13D060827
:10013000AD3D0608000000000000000000000000C7
:10014000000000000000000000000000ADEB00080F
:10015000993D0608853D0608713D0608699B04081F
:10016000715B0608795B06080000000000000000D3
:10017000000000000000000000000000000000007F
:1001800000000000F56C0608000000000000000000
:08019000F56C0608F56C060889
:080198001C68060001000000D4
:1001A0000E02010002000000246700208467002086
:1001B00000000000F809000814020100050000001A
:1001C000C43E00208867002000000000FA090008F3
:1001D0001302010004000000DC24002090670020CE
:1001E00000000000000A00080D1001004C00000093
:1001F000A4640020946700200000000095F9030823
:100200000400080080000000E4630020E067002094
:1002100000000000000000000902010001000000D1
:100220008C6300206068002000000000040A0008C1
:10023000FD010100240000003063002064680020FC
:100240000000000007670408FB0101000100000036
:10025000706100208868002000000000A186050869
:10026000FC010100090000003C6000208C680020B7
:1002700000000000A9860508F70101000600000043
:10028000306000209868002000000000060A000886
:10029000F9010100040000002C600020A06800208B
:1002A00000000000B1670408160215003F000000BE
:1002B00064320020A4680020000000004586050884
:1002C0003400010010000000205F0020E4680020DE
:1002D0000000000029970208110201000800000038
:1002E000F85E0020F4680020000000000C0A0008FE
:1002F0001212010004000000F05E0020FC680020E3
:1003000000000000140A000818200100320000005C
:10031000BC5E00200069002000000000358F050849
:100320001220010011000000DC5D00203469002073
:1003300000000000180A0008000201000B00000085
:10034000185B00204869002000000000F9860508BD
:10035000FF11010006000000C05A0020546900206F
:100360000000000035860508081203000F00000099
:10037000CC5A00205C690020000000004986050876
:10038000FA01010003000000B85400206C6900204D
:1003900000000000D18605080A8001002800000046
:1003A000984C002070690020000000002D14020805
:1003B000061001001C000000883100209869002010
:1003C000000000003587050802020100030000005C
:1003D000C8280020B46900200000000000000000D0
:1003E0000C02010004000000A8280020B8690020C9
:1003F0000000000001870508110001000C0000004A
:10040000EE400020BC6900200000000005F2030857
:10041000FE01010014000000F43F0020C869002024
:1004200000000000F9850508FD07010076000000C6
:1004300068C00020E0C000200000000081780108B2
:10044000261001000E00000068C1002058C10020E5
:1004500000000000351C01080B3001001A000000EC
:1004600034BA0020A8C10020000000002C0A0008B7
:100470001F3001002400000070B90020C4C100201A
:1004800000000000480A0008050201000400000006
:1004900064BC0020E8C10020000000006C0A0008D5
:1004A000030101000A000000B4B90020ECC10020E3
:1004B00000000000D5160108220201001C01000006
:1004C00078D9002030DC002000000000ED8E050807
:1004D0000C200600CC000000F4D700204CDD0020EA
:1004E0000000000055F00308010201000B000000AD
:1004F00098D7002018DE002000000000E9860508DB
:100500001B020100100000006CD7002024DE002038
:1005100000000000218705081B1001000C000000EE
:10052000F0C3002034DE002000000000F57E01084A
:1005300021020100F000000070C2002040DE002017
:1005400000000000C5A001082312010010000000F7
:1005500074D4002030DF002000000000700A000882
:10056000371001002E000000DCD6002040DF002004
:1005700000000000800A00081610010006000000BC
:100580006CD4002070DF002000000000AE0A0008DC
:100590002F100100220000000CDC002078DF00207A
:1005A00000000000B40A00081E000100090000005D
:1005B00064D300209CDF002000000000D60A000861
:1005C0000510010006000000D8D30020A8DF00209D
:1005D00000000000E00A0008F5810100680000004A
:1005E00000C20020B0DF002000000000459101089B
:1005F000232001001000000018D4002018E0002083
:100600000000000041150208F62101000C00000066
:10061000E4EB00209CED002000000000E80A000848
:100620001C0202001C00000088EB0020ECED002002
:10063000000000002190050828200100180000009B
:10064000A4EB002008EE0020000000008930020822
:1006500004120100020000005CED002020EE0020EA
:1006600000000000F40A00080F0201000100000071
:1006700058ED002024EE002000000000F60A0008DB
:10068000140001000400000080EB002028EE002090
:1006900000000000F80A0008012001000C00000022
:1006A00038E300202CEE002000000000FC0A0008C7
:1006B0000EF003009E01000020E1002038EE002033
:1006C0000000000071970208130001000400000000
:1006D00010E70020D8EF002000000000080B000801
:1006E00001010100040000006CE00020DCEF0020AC
:1006F00000000000000000000001010004000000F4
:1007000064E00020E0EF0020000000000C0B000877
:10071000020101000300000060E00020E4EF00207F
:100720000000000091F0030819000100050000001E
:10073000E8FD0020B4FE002000000000100B0008BF
:100740001A0001000E00000048FD0020BCFE002041
:1007500000000000160B0008203201000A00000013
:10076000E0FB0020CCFE0020000000004D970208B6
:100770001500100070000000BCF50020D8FE00201D
:1007800000000000000000002A00080060000000D7
:1007900030FE002048FF0020000000000197020802
:1007A0002C00040010000000B8FF0020A8FF00206B
:1007B00000000000D99402082B0012002400000061
:1007C000ECFF0020C8FF002000000000AD940208EC
:1007D00029201400780000005CF3002010000120A4
:1007E00000000000000000001902010010000000DD
:1007F00090F200208800012000000000D986050842
:10080000030001000100000010190120241C012038
:100810000000000000000000031201003D00000085
:10082000B8180120281C012000000000240B00083B
:1008300025201E002C0100001C160120681C012030
:100840000000000000000000101001000200000085
:100850009C150120941D012000000000620B00087F
:10086000F821010006000000F8150120981D012064
:1008700000000000640B0008020001000C000000F2
:10088000042601209826012000000000000000003E
:10089000290201004000000070200120A426012050
:1008A000000000006A0B00080A02010014000000AA
:1008B0005C1F0120042701200000000021F0030834
:1008C00028020400040000005C30012038320120BE
:1008D000000000001D870508270204000400000036
:1008E000583001203C32012000000000118705082B
:1008F0001F02080010000000B42D0120403201202A
:1009000000000000118605081A0201003C000000EA
:100910005C2901205032012000000000A58F05084D
:100920003810010001000000382701208C3201201E
:1009300000000000AA0B00082700010004000000CE
:10094000543301205C33012000000000AC0B000890
:100950000B1201003C00000014350120DC4701208F
:1009600000000000B00B00080D1201001400000090
:10097000C84101201848012000000000EC0B0008CD
:100980000702010002000000C44701202C4801209A
:1009900000000000000C00081D020200060000001C
:1009A0008C470120304801200000000000000000BA
:1009B000060203000C00000098470120B84C0120FB
:1009C00000000000AD90050839000100050000009E
:1009D000A4470120C44C012000000000C186050886
:1009E00010020100010000009C800120988001207D
:0809F00000000000020C0008E9
:1009F8000000000000FF00000000010000000000EF
:100A0800010000000000000001010101FFFFFFFFDD
:100A180000000001000105533431310000000002DC
:100A280000000000AE014A015E012C0164000200D2
:100A3800000001000A019A01001E0A0000020000DD
:100A48000000000000010000000500000102030092
:100A5800000000000000000000000000000000008E
:100A680000800700000000000000000000000000F7
:100A7800000000000000000020003200C800D0077D
:100A880096001400320028004C044006000550006F
:100A980014000F00080064000100010005000A00AE
:100AA8000000F4019600C4090000190000000000CD
:100AB800000000000000000000000000000000002E
:100AC8000000000000000000000000000000000519
:100AD80001000000000000002000030100000000E9
:100AE80000000000010000000202000000000000F9
:100AF80003000023E8036400040A000114001E0038
:100B080000204030900100000000280100007E0510
:100B1800EA05B4053200E803D00700000000000031
:100B280000000000000000000000000000000000BD
:100B380000000000000000000000000000000000AD
:100B4800000000000000000000000000000000009D
:100B58000000000000000000010000050201F4018F
:100B68001400000000000000000000000000000069
:100B7800000000000000000000000000000000006D
:100B8800000000000000000000000000000000005D
:100B9800000000000000000000000000000000004D
:100BA800000000002003000000000000000000001A
:100BB800000000000000000000000000000000002D
:100BC800000000000000000000000000000000001D
:100BD800000000000000000000000000000000000D
:100BE80001000000000000000000000000000000FC
:0B0BF8000000000000000000003C00B6
:100C03000403090412010002EF0201408304563277
:100C1300000201020301000012010002020200406F
:100C2300830440570002010203010800FFFFFFFF96
:100C3300006002401060024000000000000000005D
:100C4300000B000000000000000000000000000096
:100C53000060024028600240010000000000000024
:100C6300060C00000000000000000000000000006F
:100C730000600240406002400200000000000000EB
:100C8300100D000000000000000000000000000044
:100C930000600240586002400300000000000000B2
:100CA300160E00000000000000000000000000001D
:100CB3000060024070600240040000000000000079
:100CC300200F0000000000000000000000000000F2
:100CD3000060024088600240050000000000000040
:100CE30026100000000000000000000000000000CB
:100CF30000600240A0600240060000000000000007
:100D0300301100000000000000000000000000009F
:100D130000600240B86002400700000000000000CD
:100D2300362F00000000000000000000000000005B
:100D33000064024010640240000000000000000054
:100D43000038000000000000000000000000000068
:100D5300006402402864024001000000000000001B
:100D63000639000000000000000000000000000041
:100D730000640240406402400200000000000000E2
:100D8300103A000000000000000000000000000016
:100D930000640240586402400300000000000000A9
:100DA300163B0000000000000000000000000000EF
:100DB3000064024070640240040000000000000070
:100DC300203C0000000000000000000000000000C4
:100DD3000064024088640240050000000000000037
:100DE3002644000000000000000000000000000096
:100DF30000640240A06402400600000000000000FE
:100E0300304500000000000000000000000000006A
:100E130000640240B86402400700000000000000C4
:100E23003646000000000000000000000000000043
:100E33007D000000010000001583000811830008F5
:100E43000D83000801830008FD8200080983000860
:100E53000583000800000000E990000881AD000848
:100E6300AD900008C1AE0008C19100088583000859
:100E73007183000855830008E1A60008498A000829
:100E8300ED93000861940008E19400089996000826
:100E9300610F01085D8300084D8300080100000015
:100EA3000000803F393901083D3E0108B53901088A
:100EB300FD0F0108E11101080D10010829100108B7
:100EC300D50F0108C50F0108000000000000000055
:100ED30009022000010104C03209040000020806CF
:100EE300500507058102400000070501024000008C
:100EF30009026400030100C0320904000001030079
:100F030000000921110100012236000705830309AE
:100F1300000A080B01020202010009040100010298
:100F2300020100052400100105240100020424022B
:100F3300020524060102070582030800FF090402D3
:100F430000020A00000007050102400000070581B6
:100F53000240000009024300020100C032090400FC
:100F63000001020201000524001001052401000113
:100F7300042402020524060001070582030800FF7A
:100F830009040100020A00000007050102400000F5
:100F93000705810240000000FF00000000FF000081
:100FA300000000000000AA550701000001AA550532
:100FB30001000008C0AF0608FF1FFF1F0501090558
:100FC300A101A100050109300931093209330935AD
:100FD3000934093609371581257F7508950881027B
:100FE30005091901290815002501950875018102D4
:100FF300C0C0000009022200010100E03209040020
:10100300000103010200092111010001223600073A
:1010130005830309000A0000000000000102030425
:1010230001020304060708092D202D2D202D2D2D47
:101033002D202D2D2D2D00000000000000000000AC
:1010430000000000000000AA550B010000AA55058E
:10105300010000AA550902000000AA5503009F00E1
:1010630001000000C0120000A0C100200000000029
:1010730078C1002000000000010000004834070888
:10108300503407080000000019F10308A08601008E
:101093000400000000000000000000000000000049
:1010A300000000000000000000000000000000003D
:1010B30000000000000000000000000048340708A2
:1010C3005834070800000000497B0408E8030000C7
:1010D3000400000000000000000000000000000009
:1010E30000000000000000000000000000000000FD
:1010F300000000000000000000000000603407084A
:1011030000000000000000003D5C03087D000000BB
:10111300FF000000000000000000000000000000CD
:1011230000000000000000000000000000000000BC
:1011330000000000000000000000000044BA07089F
:101143000000000000000000ED7303087D000000B4
:10115300FF0000000000000000000000000000008D
:10116300000000000000000000000000000000007C
:101173000000000000000000000000000C49070808
:1011830000000000000000003DB803087D000000DF
:10119300FF0000000000000000000000000000004D
:1011A300000000000000000000000000000000003C
:1011B3000000000000000000000000006834070881
:1011C300000000000000000079710408E80300003B
:1011D3000300000000000000000000000000000009
:1011E30000000000000000000000000000000000FC
:1011F3000000000000000000000000006C3407083D
:10120300000000000000000055260308102700001E
:1012130003000000000000000000000000000000C8
:1012230000000000000000000000000000000000BB
:1012330000000000000000000000000058B607088E
:1012430000000000B990020821D804085F7600006E
:101253000500000000000000000000000000000086
:10126300000000000000000000000000000000007B
:10127300000000000000000000000000E8B90708BB
:10128300000000000000000085F70408102700009C
:10129300010000000000000000000000000000004A
:1012A300000000000000000000000000000000003B
:1012B3000000000000000000000000007834070870
:1012C3000000000000000000D9630408E8030000E8
:1012D3000500000000000000000000000000000006
:1012E30000000000000000000000000000000000FB
:1012F3000000000000000000000000008434070824
:101303000000000000000000FDF70308204E00006D
:1013130003000000000000000000000000000000C7
:1013230000000000000000000000000000000000BA
:1013330000000000000000000000000094340708D3
:101343000000000000000000E5F50308204E000047
:101353000300000000000000000000000000000087
:10136300000000000000000000000000000000007A
:10137300000000000000000000000000A434070883
:1013830000000000000000008D770408400D0300FA
:101393000300000000000000000000000000000047
:1013A300000000000000000000000000000000003A
:1013B300000000000000000000000000B434070833
:1013C3000000000000000000652C04081027000046
:1013D3000100000000000000000000000000000009
:1013E30000000000000000000000000000000000FA
:1013F300000000000000000000000000BC340708EB
:1014030000000000000000005DAD0108102700008F
:1014130003000000000000000000000000000000C6
:1014230000000000000000000000000000000000B9
:10143300000000000000000000000000C0340708A6
:10144300000000000000000099700208A08601005F
:101453000100000000000000000000000000000088
:101463000000000000000000000000000000000079
:10147300000000000000000000000000C83407085E
:1014830000000000000000000170040850C30000C9
:101493000100000000000000000000000000000048
:1014A3000000000000000000000000000000000039
:1014B300000000000000000000000000D034070816
:1014C3000000000000000000D16D0408A0860100A8
:1014D3000000000000000000000000000000000009
:1014E30000000000000000000000000000000000F9
:1014F300000000000000000000000000DC340708CA
:101503000000000000000000B9690408A8610000A1
:1015130001000000000000000000000000000000C7
:1015230000000000000000000000000000000000B8
:10153300000000000000000000000000E83407087D
:101543000000000000000000D9060208A086010088
:101553000100000000000000000000000000000087
:101563000000000000000000000000000000000078
:10157300000000000000000000000000F434070831
:10158300000000000000000021A20408A00F0000DA
:101593000100000000000000000000000000000047
:1015A3000000000000000000000000000000000038
:1015B30000000000000000000000000000350708E4
:1015C3000000000000000000D50102081027000001
:1015D3000100000000000000000000000000000007
:1015E30000000000000000000000000000000000F8
:1015F3000000000000000000000000000C35070898
:10160300000000000000000059F10308A00F0000D3
:1016130001000000000000000000000000000000C6
:1016230000000000000000000000000000000000B7
:10163300000000000000000000000000183507084B
:10164300000000000000000099DC01081A410000BE
:101653000100000000000000000000000000000086
:101663000000000000000000000000000000000077
:101673000000000000000000000000001C35070807
:1016830000000000000000000917010810270000F7
:101693000100000000000000000000000000000046
:1016A3000000000000000000000000000000000037
:1016B30000000000000000000000000028350708BB
:1016C30000000000000000009D4B020850C3000012
:1016D3000100000000000000000000000000000006
:1016E30000000000000000000000000000000000F7
:1016F3000000000000000000000000002C35070877
:1017030000000000000000004D200108400D030010
:1017130000000000000000000000000000000000C6
:1017230000000000000000000000000000000000B6
:10173300000000000000000000000000343507082E
:10174300000000000000000025F20308400D030024
:101753000000000000000000000000000000000086
:101763000000000000000000000000000000000076
:101773000000000000000000000000003C350708E6
:10178300000000000000000021EB010850C300002E
:101793000300000000000000000000000000000043
:1017A3000000000000000000000000000000000036
:1017B300000000000000000000000000483507089A
:1017C30000000000000000002D09040840420F0043
:1017D3000000000000000000000000000000000006
:1017E30000000000000000000000000000000000F6
:1017F300000000000000000000000000543507084E
:101803000000000000000000C1FC030850C30000FA
:1018130000000000000000000000000000000000C5
:1018230000000000000000000000000000000000B5
:1018330000000000000000000000000001000000A4
:1018430000000100E0010000FFFFFFFF01007EFF39
:10185300FFFFFFFF080000004257020000000106DF
:10186300425702000000010601FFFF00FFFFFFFFD8
:1018730001010100450A0208000000000000000009
:10188300F8B90608E0E4002034E50020B925020891
:10189300E12302080000000060D20608CDF9010828
:1018A3000000000000000000C4D106085926020809
:1018B30000000000000000007CD1060800000000CA
:1018C30000000000000000002CD00608000000000B
:1018D3000000000000000000E4D006080000000043
:1018E300000000000000000090D006080000000087
:1018F30000000000BD220208D5E60020D601FF2D1E
:10190300202D2D202D2D2D2D202D2D2D00000000DF
:1019130000000000000000000000000000000000C4
:10192300FFFFFFFF4929020800000000000000003C
:10193300BCCF060801000000FA000000010000000F
:10194300010000000101000000010101000000008E
:1019530032E300200000F4010100000030E3002026
:101963000000F401010000002EE300200000F40158
:10197300010000002CE300200000F401010000003E
:101983002AE300200000F4010100000028E3002006
:101993000000F4010100000026E300200000F40130
:1019A300010000007D12020841120208000000003D
:1019B3003CBC060816E300200532010024E30020A6
:1019C3006400F4010100000022E300206400C40964
:1019D3000100000014E30020E803D0070100000029
:1019E30012E30020E803D0070100000010E3002009
:1019F300E803D007010000000EE300201E00B80B2F
:101A0300010000001CE3002005000F00010000009E
:101A13001EE3002003000A00010000000CE3002085
:101A23001E00F4010100000020E30020020000007A
:101A3300C8BC06080AE3002014006400010000008B
:101A430018E300203200E8030100000008E300204F
:101A53000000C80001000000E1E2002000C801000E
:101A6300E0E2002000500100DFE20020005A010004
:101A7300DDE2002002000000D4BC06085440070841
:101A83005C4007085E6600200100C40900000000F6
:101A93005C6600200100C409000000005A660020B3
:101AA3000100C40900000000586600200100C409B9
:101AB30000000000546600200100C409000000007B
:101AC300566600200100C409000000005266002091
:101AD3000100C40900000000506600200100C40991
:101AE300000000008BE0002000C801008AE0002015
:101AF30000C8010088E000200000FFFF0A0000008A
:101B030086E000200100C8000100000084E00020FE
:101B1300320030753200000082E000207EFF1400A6
:101B23000500000080E0002005002C0105000000F6
:101B33007EE00020055A05007BE0002000FF010045
:101B43007DE00020020000001410002079E0002056
:101B530003000000E0B106087AE0002000FF010066
:101B63007CE00020020000001410002078E0002038
:101B730003000000E0B10608D11102086111020858
:101B830000000000E0BC060848E30020EE02CA089B
:101B93000100000046E3002000C8010064000000CB
:101BA30045E3002000C801006400000044E3002076
:101BB30002000000ECBD060872E000200000803E39
:101BC3000500000070E0002080C1803E0500000099
:101BD3006AE000200083007D0500000068E000202B
:101BE30080C1803E0500000063E0002000FF01008B
:101BF3005EE000206400F401010000005CE00020CE
:101C030004000000F8BD06085BE0002002000000AD
:101C13000CBE060811E100200D00000018BE0608E6
:101C23000EE10020006401000CE1002032001027C7
:101C33000A0000000AE100200D00000018BE06089B
:101C430009E100200D00000018BE060808E100208D
:101C53000200000050BE0608000000000000000063
:101C6300000000005CBE06084EE300203E000000BA
:101C730094BE06084CE300200100FF7F0100000032
:101C83004BE300200200000090BF060813E1002090
:101C930003000000A0BF060812E1002003000000BB
:101CA300A0BF0608CEE20020000A0100CCE200201B
:101CB3000000E80301000000CAE200200000E8037E
:101CC30001000000C8E200200000E803010000005A
:101CD300C6E200200000E80301000000BEE200208D
:101CE3000000E80301000000C4E200200000E80354
:101CF30001000000C2E200200000E8030100000030
:101D0300C0E2002000140100DCE200200200000019
:101D1300B0BF0608DAE200200000F4010100000071
:101D2300D8E200200000F40101000000D6E2002008
:101D33000000F40101000000D4E200200000F401DF
:101D430001000000D2E200200000A00F010000000B
:101D5300D0E200200000A00F01000000F5E2002007
:101D630019640100F4E2002002000000BCBF060871
:101D7300F2E20020E803D0070A000000F0E20020AE
:101D8300006401000A000000E5E200200064010095
:101D9300E4E2002000640100ECE2002000640100A2
:101DA3000A000000EBE20020006401000A000000CA
:101DB300EAE20020006401000A000000EFE20020D4
:101DC30000FF01000A000000EEE2002000FF010016
:101DD3000A000000EDE2002000FF01000A000000FD
:101DE300E9E2002001FF01000A000000E8E2002010
:101DF30001FF01000A000000E7E2002001FF0100EB
:101E03000A0000001CE100200000F40101000000B2
:101E13001AE100200000A00F0100000018E10020DB
:101E23000000A00F0100000016E100200000A00F39
:101E33000100000014E100200000A00F01000000D9
:101E430025E7002000C8010024E70020006401000A
:101E530023E700200064010022E700200064010062
:101E630021E700200064010020E70020FF080100B3
:101E73001FE7002001640100C91002088D10020849
:101E830000000000C8BF060828E700200132010057
:101E930027E700200100000038C0060826E70020DD
:101EA3000400000040C006081EE700200064010093
:101EB3001CE700201400E803010000001AE70020DB
:101EC300E80330750A00000018E7002000C801008D
:101ED30017E7002000C8010016E7002000C8010032
:101EE30015E70020003201002AE70020004B010023
:101EF30029E700200400000054C0060814E700206E
:101F0300006401000A00000038E700200000D00749
:101F13000100000033E7002000C8010032E7002081
:101F230000C8010031E7002000C8010036E70020A7
:101F33000000D0070100000030E7002000C80100C6
:101F43002FE7002000C801002EE7002000C8010091
:101F530034E700200000D007010000002DE7002037
:101F630000C801002CE7002000C801002BE7002077
:101F730000C80100810E0208690E0208000000007B
:101F830068C0060805E10020005A010004E10020B2
:101F930000C8010002E10020E803D00701000000AF
:101FA3000000000000000000FD22020804C1060832
:101FB30053544D33324634313100000077E0002072
:101FC3000003010076E0002000030100A50D0208D4
:101FD300590D02080000000058C10608190D020837
:101FE300D10C020800000000F4C10608F10D02083C
:101FF3002D2902080000000074C2060874E00020C6
:1020030001030100591302082D1302080000000008
:10201300CCC506085D0C0208190C0208000000007C
:102023003CC60608910E0208812A0208000000003F
:10203300D8C60608492E02088513020800000000CE
:1020430080C70608E10E020800000000000000003F
:102053000CC80608BD0F0208650F02080000000047
:1020630070C806085110020815100208000000008D
:1020730018C90608958B0208051102080000000024
:10208300A4C9060807E3002001060100290F02087E
:10209300F50E020800000000A0CA0608C98A02085B
:1020A3004D2B02080000000010CB0608DD8B020850
:1020B300152C02080000000060CC060806E300208F
:1020C30001030100390E0208090E02080000000096
:1020D30034CD0608358C0208000000000000000023
:1020E30098CD0608A10C020815290208000000007B
:1020F30018CE0608000000000000000000000000E9
:10210300A4CE0608391102088D2C02080000000035
:1021130014CF0608000000000000000000000000CB
:102123002CD1060810BC00209CFF2C0100000000ED
:1021330098E80020E0150C1700000000A0DB002049
:102143000200000064D1060857E0002002000000EE
:1021530070D1060852E0002088136F1701000000B9
:1021630054E0002088136F1700000000A2660020CF
:102173000000000000000000A06600200000000036
:10218300000000009E660020000000000000000028
:102193009C66002000000000000000009A660020FA
:1021A300000000000000000098660020000000000E
:1021B30000000000FC0500200000000000000000FB
:1021C30028E0002003000000C4D2060850E00020ED
:1021D30088136F17010000005ABC002088136F1783
:1021E30000000000FD0A02080000000000000000DB
:1021F300D4D2060819E600200100000028D30608FF
:102203005CBC00200100000034D3060852BC00204F
:10221300020000003CD3060800000000000000009C
:102223000000000048D30608E90A02080000000085
:1022330000000000E4D306080000000000000000D6
:102243000000000038D40608000000000000000071
:1022530000000000A8D4060856E000200200000099
:10226300E0D4060856BC0020E0150C17000000005F
:102273000101000098000120FFFFFFFF0000803FE5
:10228300000000000000000000000000000000004B
:10229300000000000000000000000000000000003B
:1022A300000000000000803F00000000000000006C
:1022B300000000000000803F00000000000000005C
:1022C300000000000000803F00000000000000004C
:1022D30000000000010000000000FA430000FA4380
:1022E3000000803F752E040800000000000000007D
:1022F30000000000FFFFFFFFFF00000000000000E0
:10230300F42601200800000000000000E42601205C
:10231300080000002000000091380108F1100108B6
:102323002938010800000000C10F0108114101080C
:1023330079370108C53301080000000000000000E0
:10234300810F0108258300081983000839900008CC
:10235300559000081D90000801900008E58F0008C3
:1023630049380108CD1001087D370108000000003D
:10237300990F0108C93301084D37010825330108B6
:1023830000000000000000008D0F0108685E0C00D3
:10239300FFFFFFFF02010000A00F0000B80B0000C9
:1023A30002FFFF01FFFF00004CB607080000080210
:1023B300050303000000000054B6070801000802EB
:1023C30005040300000000001C5E07080200FE0174
:1023D3000110030000000000BC43070803001402BF
:1023E30000030000000000005CB6070804001F02A1
:1023F300020008000000000064B6070805001F0281
:102403000201080000000000FFFFFFFF1A030000A5
:1024130000000000000000000000000000000000B9
:102423000000000000000000040309041201000280
:1024330000000040830420570002010203010B0146
:10244300D5970508A99705084D970508E987050855
:10245300699705080D970508E5870508F81A002010
:10246300C9980508E9980508B9980508C9870508B2
:10247300759805082D980508B9870508D41A002012
:10248300E9900508D1870508CD870508C5870508A4
:1024930031920508C1870508BD8705089C270708F1
:1024A300AD400108AD1001088D3F01080000000098
:1024B3000000000025370108353601080000000040
:1024C3000000000000000000750F01087188050876
:1024D3006588050839990508559905081D88050873
:1024E3001D99050801990508FFFFFFFF0100000082
:1024F30050C30000010100001F0000001C00000089
:102503001F0000001E0000001F0000001E0000004E
:102513001F0000001F0000001E0000001F0000003D
:102523001E0000001F0000000068214C0125000070
:10253300E02407083C3107081C1B0020008002022E
:102543001F00000053544D202020202050726F6440
:10255300757420202020202020202020302E303190
:10256300008002021F00000053544D202020202031
:1025730050726F647574202020202020202020209A
:10258300302E3031D3160108CF160108C7160108C3
:10259300B1140108B51F0108E11F0108111F01084B
:1025A300BD160108AD1601089D1601088D16010818
:1025B300A91401082AFFFF01F4010000000004012F
:1025C30000000000000000021000000007000000EF
:1025D30000000000000000000102030406070809D0
:1025E30001000000801B002000000000000000002C
:1025F30000000000000000000000000000000000D8
:1026030000000000000000000000000000000000C7
:1026130000000000000000000000000000000000B7
:1026230000000000000000000000000000000000A7
:102633000000000000000000000000000000000097
:0826430000000000000000008F
:08280000082800080040000850
:10800000F0B401292A4C2B4D23684FF0000694BF91
:1080100000270127EE626662A6626763676B47EA24
:1080200042076763EE63EC6B002A38D144F4957421
:10803000EC631C6824F001041C601C68E407FCD499
:10804000490289085960D8601968EAB921F04001ED
:10805000196019498B421DD018494FF47410C8603B
:10806000196841F01E011960596941F08001596198
:10807000196841F00101196022B90E4AD36A43F030
:108080000803D362F0BC704741F0400119600A490F
:108090008B42E1D14FF0746041F8500CE0E744F0BE
:1080A0001A04EC63EC6A44F00804EC62C1E700BF18
:1080B000E01B0020002C0140586402400064024094
:1080C0001148002302461178032902F1060216D056
:1080D0000133062BF7D10D4AD36D052B0ED0591C59
:1080E00003EB4303D16500EB4303032040F2EB3184
:1080F00040F2FF32187059809A807047704703EB46
:10810000430300EB4303F0E7181C0020E01B0020B2
:1081100070B4C3080D4CE25C00F00706B24004EBFB
:10812000D004D2B20020C6F108038B4228BF0B4610
:10813000C3F108052A419840C91A40EA02004FF0ED
:10814000000614F8012FEED170BC7047801C00208F
:10815000084AD2E9343199420AD0D118013391F852
:10816000D8100170C3F30A03C2F8D0300120704761
:1081700000207047E01B0020064AD2F8D838D2F819
:10818000DC28934294BF4FF400600020013B9B1A0F
:1081900018447047E01B0020012380F851307047DD
:1081A00007B501A8FFF7D4FF0028FAD09DF8040016
:1081B00003B05DF804FB044BD3E93403984288BF55
:1081C00003F50063181A7047E01B00200120704778
:1081D000024BC3F8E028C3F8E4187047E01B002006
:1081E000024BC3F8E828C3F8EC187047E01B0020E6
:1081F0007047704730B4134DD5E934239A4286BF97
:1082000003F50064A21A9A1A0A44B2F5006F13D853
:10821000A9B101444A1E013810F8014FE918824201
:1082200003F1010381F8D840C3F30A03F4D1C5F880
:10823000D430002030BC7047022030BC7047084664
:10824000F8E700BFE01B0020212838B50C4605D018
:1082500022282ED0202813D0002038BD0029FBD0A2
:10826000072AF9D11A4BD3F8F00893F8F41893F8C9
:10827000F52893F8F638206021716271A371EBE75D
:108280000029E9D0072AE7D1114DD5F8E4381BB110
:108290000968D5F8E0089847206821796279A379C0
:1082A000C5F8F00885F8F41885F8F52885F8F6384B
:1082B000D2E70029D0D0022ACED1054AD2F8EC3834
:1082C000002BC9D00988D2F8E8089847C4E700BF56
:1082D000E01B0020024B0020C3F8F808704700BFE5
:1082E000E01B0020044B00200522C3F8F828C3F847
:1082F000EC08C3F8E4087047E01B0020704700BF9B
:10830000704700BF704700BF704700BF704700BF95
:10831000704700BF704700BF042301480B807047BF
:108320009801002010B4074A074B92F8FC08122469
:1083300003F114020C8001280CBF184610465DF8AA
:10834000044B7047E01B00209C0100200048704750
:10835000681C002000487047681C0020034B93F8FD
:108360008400032894BF002001207047E01B0020F8
:10837000034B93F88400032894BF0020012070472A
:10838000E01B0020034B93F88400003818BF012045
:10839000704700BFE01B0020A0B182680D4B12B1F6
:1083A00007229A7070471978DA6003294FF00400A9
:1083B0000CBF80214FF48071C3E901111A611A7555
:1083C00098707047034B41F2E47101225A545A707D
:1083D000704700BFDC9900200378022B10D00069A1
:1083E00008B9012070470C4B1B78032B0EBF0B4BB9
:1083F00080B24FF6F773984294BF00200120704777
:108400000549436841F650028A58B3EB422F2CBF0E
:1084100001200020704700BFDC990020F7FFFF0F0C
:108420000378022B14D030B4104A4368006941F637
:10843000480402F5C2511559096841F63C042B4025
:1084400012595B0A023801FB0030104430BC7047FF
:10845000064B426841F6340141F63000595818582D
:1084600000EB410000EB5220704700BFDC99002078
:108470000E4B70B5D3F8BC4041F078FAA38905469D
:1084800042F20F7623899B0705D52046FF21BDE8E0
:1084900070405BF005BD41F069FA401BB042F1DD70
:1084A000204646F08FFCC0B270BD00BFE01B00202C
:1084B00070B505460E460924FFF7DAFFFF2803D101
:1084C000013CF9D1012070BDFE2801D0022070BD11
:1084D000064933462A46D1F8BC0000215CF0DCFD99
:1084E000FFF7C6FFFFF7C4FF002070BDE01B0020B0
:1084F0002DE9F04383B040F040060C0E05460A0A11
:10850000080C95238DF801408DF804108DF800605B
:108510008DF802008DF803208DF805300824FFF750
:10852000A7FFFF2802D0013CF9D125BB1E4BD3F891
:10853000BC40A3890627E84642F20F76B8F1000F47
:1085400030D018F8015B41F011FA814623899A076F
:1085500015D5ADB2A58141F009FA05462389DB079F
:1085600017D5013FA389E9D10924FFF781FFFF282F
:1085700002D1013CF9D1FF2003B0BDE8F08341F006
:10858000F5F9A0EB0900B042E0DD204646F01AFC08
:10859000EAE741F0EBF9401BB042DFDD204646F050
:1085A00011FCE1E7FF25CEE7E01B0020F8B5194FED
:1085B0000023C7F88030FFF75BFFD7F8BC4041F0DD
:1085C000D5F9A389054642F20F7623899B0710D57A
:1085D0002046FD215BF064FCFFF74AFFFF2811D124
:1085E000FFF746FFFF280DD10423022087F88430CF
:1085F000F8BD41F0BBF9401BB042E6DD204646F035
:10860000E1FBE9E7D7F800397B670923002087F809
:108610008430F8BDE01B00202DE9F041684C0023B8
:108620004FF4F0722021064604F6081084F804394D
:1086300061F0C9FE04F6E8204FF4F072202161F0E9
:10864000C2FE94F8C90C10B194F8CA2C1AB90025CE
:108650002846BDE8F08144F06BFD0746C4F8D40C11
:1086600045F03AF805460028F1D00FB12323FB80EE
:108670000921384640F058FCD4F8D40C514F45F04D
:108680004DF894F8CA0C013840B246F0DDFC0223E4
:10869000102184F8CC3CC4F8D00C58F0E5FB798D5F
:1086A000494846F045FBD4F8D40C45F031F8FF2199
:1086B0008C205CF0B5FC8046D4F8D40C45F02EF844
:1086C000D4F8D00C042158F0CFFBB8F11B0F05D023
:1086D000D4F8D40C202140F027FCB8E7D4F8D43CDF
:1086E000012284F804290BB12322DA80798D3648DF
:1086F00046F01EFBD4F8D40C45F00AF840210A20BD
:108700005CF08EFCFF218A205CF08AFCC0F38013B1
:10871000D4F8D40C84F8D83C45F000F8D4F8D00C48
:10872000042158F0A1FB94F8C83C012B3FD0022B48
:1087300037D0CBB394F8D93C182B08D194F8D82C67
:108740007B8DA4F8DC6CA4F8DE2CA4F8E03C798DD9
:108750001D4846F0EDFA798D1B4846F0E9FAD4F849
:10876000D40C44F0D5FF022100205CF059FCD4F871
:10877000D40C44F0D3FF0421D4F8D00C58F074FB8F
:1087800094F8E92C94F8EA3C94F8E81C84F8E41C8A
:10879000C2F12002C3F1100384F8EB2C84F8EC3C06
:1087A00056E708237B85C5E710237B85C2E7002EAB
:1087B000F7D094F8D83C002B14BF08231023F1E71E
:1087C000E01B002098010020AC2800202DE9F84F84
:1087D000564B984210D003F568530833984267D03F
:1087E000534B0020A3F8480DA3F8540DC3F84C0DCB
:1087F000C3F8500DBDE8F88F4D4C4E4E02224FF09D
:10880000000BC4F8F02C04F6F445D9464FF4007A76
:108810004FF48078F26A01275A455946BB4403D089
:10882000D4F8640D54F014F994F8682D85F82420D8
:10883000D4F8640DA5F804A04FF000724FF4803115
:10884000A960EA60A5F8108085F81290A5F8068066
:108850002F762862B72154F0F1FAD4F8F02C364B79
:108860006F76934545F8283BD4DB84F8569DD4F8C1
:10887000F01CB4F8F82CD4F8003DD4F8FC0CB4F893
:10888000045DC4F86C3D12FB01F203FB01F3A4F894
:10889000482DB4F8FA1C294AC4F84C0DC4F8503DD0
:1088A000A4F8545DA4F84A1DC4F8442D0120A1E7A2
:1088B0001F4C204E0223C4F8F03C04F6F4454FF060
:1088C000000B4FF4806A4FF040094FF40068F26AE1
:1088D00001275A455946BB4403D0D4F8640D54F0DF
:1088E000B7F8D4F8641D94F8682D296285F824201F
:1088F0004FF400314FF00062C5E90212A5F804A060
:10890000A5F81090A5F80680AF74FFF7D9FB2846AC
:108910006F7654F0E5F9D4F8F02C094B45F8283B74
:108920009345D4DB84F8567DA1E700BF1971EF00B1
:10893000E01B00209801002068A40608C0A40608D7
:1089400094A40608F8B51A4C94F8703D002BFBD19E
:1089500059B301444E1E451ED4F8DC28D4F8D8186B
:1089600015F8017F531CC3F30A038B422CBF4FF44D
:1089700000600020C91A22440144012982F8747D54
:10898000C4F8DC380FD1012041F01CF8D4F8D838F5
:10899000D4F8DC188B4294BF4FF4006200225B1ABB
:1089A0001344012BEFD0B542D6D10020F8BD00BF53
:1089B000E01B002010B5094CD4F8F83808461146E1
:1089C0005BB1D4F8F838052B07D1002AD4F8003968
:1089D00003DDFFF7B7FFD4F8003910BDE01B00201E
:1089E00010B590F85010002380F8503081B10B4C36
:1089F000D4F8F82872B1D4F8F828052A0CD13C3004
:108A0000D4F80039FFF79EFFD4F80039012010BDDB
:108A10000120FCE71046FAE71846F8E7E01B0020C3
:108A2000002280F85120DBE790F85020531C0244CC
:108A3000DBB280F8503082F83C1090F851200AB137
:108A4000132B00D9CCE770472DE9F8434379574DF4
:108A5000002B14BF0122002285F8B02003D185F835
:108A60008430BDE8F88390F8018008F1FF3676B2D3
:108A7000044630460F4646F0E7FA0223C5F8BC002C
:108A800085F8B8302378002B63D1E478002C54D1DA
:108A90004FF48071D5F8BC00C5F8C04058F0E4F937
:108AA0004FF47A7040F08EFFD5F8C00044F036FEE7
:108AB000D5F8BC404FF00A08A38942F20F764FF078
:108AC000FF090BE0A4F80C9040F050FF0746238903
:108AD000D9072CD5B8F10108A3890DD040F046FF85
:108AE000074623899807EDD440F040FFC01BB042F1
:108AF000F7DD204646F066F9D5F8BC102C4B0A8904
:108B000092070AD50A8912F0800206D1D5F8001919
:108B100085F8782001236967A1E7013BEFD195F83B
:108B2000782085F88430531C85F8783099E740F038
:108B30001DFFC01BB042CADDDBE7204644F0F8FA57
:108B4000044608B11E23C3800921204640F0ECF9F9
:108B50009EE706EB86063E44414696F90320002038
:108B600041F0EEFA064630B1406841F0D7FAB368FA
:108B700085F8CE3018B9002385F8C43085E70D4A52
:108B8000431E02EB4311303291F8486002EB43136D
:108B9000C5F8C830002EEED11723A1F8483059F09F
:108BA00035FE012385F8C4306FE700BFE01B0020CD
:108BB000A1860100980100202DE9F04FCF4ED04D45
:108BC00086468C4617460FCE05F27C442DED068B6B
:108BD0000FC40FCE0FC496E807008BB095F8B234DF
:108BE000059784E80700CDE906EC042B00F24981E3
:108BF000DFE813F0A801470142010500B8019FED2D
:108C0000C18ADFEDC18AC149C5F89814C049C14B7A
:108C1000C14AC5F894140599002918BF134638EEC7
:108C2000887AF5EE006AC6EE879ABC4EC5F8A03485
:108C3000A6F11503039306F1C0080027DFEDBF7A04
:108C40009FEDB79A28EE278AB0EE67AA079BBB4232
:108C500000F00C81039B13F8014B039307F1010B08
:108C60005FFA8BF3002C00F08081002203E00132D8
:108C7000152A00F07A8102EB42014FEA420918F806
:108C80000100A042F3D12944049391F88D150029E5
:108C900000F0738120463FF02DFF824600683FF0D0
:108CA000CDFE9AF805103FF045FF90F800C0BCF1EA
:108CB000000F40F05A8105EB09014FEA141909F140
:108CC000FF39049B81F8CD350322B9F1040F81F8F7
:108CD000CC2504F00F0000F2FF80924C04EB490118
:108CE000B1F8B0C04CFA00F111F0010100F0288198
:108CF000012101FA00F0013800EA0C00A1440493BC
:108D00005DF044FE99F8BCC0DFF82CE2049B60449F
:108D10000EEBC00C03228CF807308CF806205EF8AE
:108D20003000C6F814C000F13F4303F57E0304EBA6
:108D30009324012194F8C4309AF8082003F01F040A
:108D40005B09032B01FA04F100F0D380042B00F03F
:108D5000CB80022B00F0C380BCF804300893B3FA38
:108D600083F3C3F11F03C3F3CC0100EB810103F0D4
:108D700007030C6A9B004FF00F0C0CFA03FC24EA6B
:108D80000C040C620C6A02FA03F323430B62022305
:108D900008A909930BF0CCFC059B002B76D0B5F805
:108DA000B034D5F8781807EE903AF8EEE77AFCEE92
:108DB000E77A17EE900AB1FBF0F202F57F42FF323C
:108DC000120CB1FBF2F295F8B214B2FBF0F00429E8
:108DD00083B272D007EE902AF8EE676A66EE887A60
:108DE00029EE677A95F8B30406990091A8EEA67A61
:108DF000019051463046C6ED027A86ED037A37F08F
:108E000045F9002F64DD7368D5F8D024934261D012
:108E1000012F5DD0D5F8E82493425BD0022F57D0C4
:108E2000D5F80025934255D0032F51D0D5F81825F9
:108E300093424FD0042F4BD0D5F83025934249D0E0
:108E4000052F45D0D5F84825934243D0062F3FD073
:108E5000D5F86025D31A18BF01235F460122082FD9
:108E60003374727406F118067FF4F0AE2E480BB01E
:108E7000BDEC068BBDE8F08F9FED2C8AF0EE488AA2
:108E8000C1E69FED2B8AF0EE488ABCE6B0EE690A97
:108E90005EF0EEFEFCEEC07A4FF6FF7317EE902AFE
:108EA000D5F87818B1FBF2F21A44120CB1FBF2F2C9
:108EB00095F8B214042918468CD107EE900A07EEF3
:108EC000102AF8EE677AF8EE476A67EE8A7A87E743
:108ED0000123C2E70023C0E7C6F814C05CE7154BC6
:108EE0005C6C2143596437E7124B1C6B21431963B7
:108EF00032E7104B1C6C214319642DE7ECA40608E3
:108F0000D82C0020ACC5A737ACC5A736B9F50308E7
:108F10009D670408A5ED030891670408A4310020AB
:108F200000007A4468A4060854310020282930380B
:108F30006F12033900380240D03200206F12833A9A
:108F4000716129E71FED038A0D4A0E4BC5F898247D
:108F5000C5F8943400220123CDE90532F0EE488AA9
:108F6000094B5CE69FED098AEEE7094A064BC5F816
:108F70009824C5F8A034002079E70B68FFDE00BF15
:108F8000B9F503089D670408916704080000000014
:108F9000F5EE0308104B70B5D3F878480546006825
:108FA0000E4664080BF0C8FAB4FBF6F1B1F5803F49
:108FB00003D3012CFAD96408F6E72246284689B281
:108FC0003FF036FC0549064B0B6028460022BDE801
:108FD00070403FF04DBB00BFD82C0020B83D0020B2
:108FE00071FD010810B5044C04480A4621460AF0F8
:108FF0001DF9204610BD00BFC03D002060330708AA
:1090000010B5044C04480A4621460AF00FF92046E0
:1090100010BD00BFC03D00207033070810B5044CE0
:1090200004480A4621460AF001F9204610BD00BF57
:10903000C03D00207C33070810B5044C04480A46A4
:1090400021460AF0F3F8204610BD00BFC03D0020C5
:109050008833070810B5044C04480A4621460AF034
:10906000E5F8204610BD00BFC03D0020943307083E
:1090700010B50C4C94F8CD200023C4F8803012B108
:10908000094AC2F8F03058F029FD20B1042302202B
:1090900084F8843010BDD4F800396367092384F85C
:1090A000843010BDE01B0020D03D002070B50D4D78
:1090B00095F88430042B04460E460AD0082B06D1BE
:1090C000EB6F83420CD0FFF7D3FF022801D00120C1
:1090D00070BD0823C5E91F4685F88430022070BDA5
:1090E000022070BDE01B002070B54379234C002B9B
:1090F00014BF0123002384F8B03003D1002384F887
:10910000843070BD1E4D002195F9F720032041F0F9
:1091100017F80028F2D04668304640F0FFFF84F888
:10912000CC000028EAD095F8F530003B18BF0123A9
:10913000304684F8CD3059F035FC0AF027F838B9BC
:1091400094F8783084F88400013384F8783070BD66
:1091500058F0AEFD40B194F878300022013384F825
:10916000783084F8842070BDD4F8002984F8780021
:109170000123626784F8843070BD00BFE01B0020CB
:10918000D03D002010B558F093FD58B10B4C94F829
:1091900078300133DBB2072B84F8783003D9002311
:1091A00084F8843010BD09F0F1FF0028F7D0D4F81E
:1091B00000396367012384F8843010BDE01B002070
:1091C0002DE9F041874C94F8B050002D00F0F88064
:1091D00094F88420844F0226531E082B41D8DFE8E0
:1091E00003F037399E4068501540050058F076FC72
:1091F000002840F0EC80636FD4F80029FA339342E2
:109200002CD2FFF7BFFF94F88420E5E758F066FC06
:109210000028F0D0D4F880300022012B84F8782088
:1092200040F2D980E16F94F8CD00013B0131C4E9EF
:109230001F1310B16C4BC3F8F020082284F884206F
:10924000A2F10805B5FA85F56D092846BDE8F0815B
:1092500084F8846058F042FC002841D194F88420BE
:10926000531EDBB2022B09D8D4F80039616F5B1AA8
:10927000C82BE5D9FFF786FF94F88420042ADFD1B4
:10928000E3E7236B002BDBD1E66ED4F8003963678C
:10929000072284F88420002ED2D0D4E91821236F2D
:1092A0000120B047DAE7636FD4F8001964338B42CA
:1092B000C6D2D4F82C80B8F1000FF4D158F00EFCCF
:1092C0000028A0D0E66E84F87880042384F88430E7
:1092D000002E7AD0D4E91821236F4046B047BDE76D
:1092E00058F0A2F80028B9D197F8F930002BA3F173
:1092F0000203B3FA83F314BF022201225B0984F84C
:10930000792084F87A3058F08FF800287FF479AF0C
:10931000D7F84831C4F88830032384F8843058F0F3
:1093200083F800289AD1304BC4F8800093F82C6160
:10933000B3F82E01D3F830E1D3F830C1D3F830714F
:10934000D3F8302184F88E6093F83411A4F88C009F
:1093500093F8356184F8922093F83501D3F83821D9
:10936000C4F89420B3F83E81B3F83E2184F89310FA
:10937000B3F83E11C2F30B1343EA182303F00F03B3
:1093800001F00F024FEA1E6E4FEA1C4C3F0A3609ED
:1093900000F00F0003F5FA63042184F8990084F8C3
:1093A0008FE084F890C084F8917084F89860A4F8F5
:1093B0009A3084F89C2084F884102846BDE8F08117
:1093C00084F884502846BDE8F08105463DE7042333
:1093D00084F8843039E7FAD1FFF74AFE94F8842004
:1093E000531E3EE7E01B0020D03D00202DE9F8434E
:1093F0001A4C94F88460042E0546894690461F4610
:1094000008D0082E02D00020BDE8F883FFF7CEF880
:109410000228F8D1D4F8C00044F07AF994F87A30F0
:1094200093B969021120FFF763F898B9D4F80039AD
:10943000C4F860900522C4E91B87656684F884201F
:1094400063670120BDE8F88329461120FFF750F833
:109450000028EBD009F070FED5E700BFE01B00202C
:1094600070B51E4C94F88430042B06460D4608D087
:10947000082B22D1E36F83422DD0FFF797F8022803
:109480001BD1D4F8C00044F043F900213720FFF786
:109490002FF829461720FFF72BF8B0B994F87A3047
:1094A0006BB971021920FFF723F870B90823C4E9DA
:1094B0001F6584F88430022070BD012070BD3146E4
:1094C0001920FFF715F80028F0D009F035FE09F053
:1094D0006FFE032070BD022070BD00BFE01B0020A6
:1094E0002DE9F04F95B0CDE902236A4C0646884637
:1094F00094F88430042B0DD0082B07D1E36FB342CE
:1095000000F0C480FFF752F80228F1D0012015B016
:10951000BDE8F08FD4F8C00044F0FAF894F87A303F
:10952000002B40F0998071021820FEF7E1FF00281F
:1095300040F0A68094F88450FEF79AFF082D0CBFE7
:10954000FC21FE21D4F8BC90019140F00FFAB9F84B
:109550000C300199054642F20F77B9F808309807A8
:109560004BD548465AF09CFC94F8C430002B52D09E
:1095700005A80AF009FE94F8CE20D4F8BC30D4F83F
:10958000C810CDF81C8052060C334868059206932B
:1095900040220023CDE90C3308920F934FF48062F0
:1095A0000A930E934FF400730B9209930AF02AFE6C
:1095B000D4F8C83005A958680AF0F8FDD4F8C830C6
:1095C000D4F8BC2059680B6843F001030B60938802
:1095D0009BB243F0020393800299E1660399C4F8B9
:1095E00060800122062300206666216784F86820D7
:1095F00084F8843015B0BDE8F08F019140F0B6F9E1
:10960000431BBB420199A8DD484645F0DBFB94F8BB
:10961000C430002BACD1D4F8BC50CDF80480AB8959
:109620004FF4807B42F20F79019BBBB113F8017BB1
:10963000019340F09BF982462B899A0710D5BFB25F
:10964000AF8140F093F907462B89DB0712D5BBF1B8
:10965000010BAB89E8D1BFE7314665E7FF27E8E7B3
:1096600040F084F9A0EB0A004845E5DD284645F0C6
:10967000A9FBB1E740F07AF9C01B4845E4DDF5E706
:1096800009F05AFD09F094FD032040E7FEF7F0FED3
:10969000FC2157E7E01B00202DE9F04F944C94F893
:1096A000B07087B0002F00F0AF8194F8842042F2B0
:1096B0000F75531E082B00F28180DFE813F0930032
:1096C000BC004A017F006D000900FA007F00E7003E
:1096D00094F8C430002B40F02682D4F8BC6094F893
:1096E00068A0236EB28903EB0A2A4FF4807BBAF19B
:1096F000000F00F0C9821AF8018B40F037F981465B
:109700003389980740F1C8811FFA88F8A6F80C80C1
:1097100040F02CF980463389D90740F1C881BBF16C
:10972000010BB389E3D194F868300133DBB2022B2B
:1097300084F868303FD1D4F8BC6040F017F9B389A1
:10974000804633899A0740F19C81304600215AF0C7
:10975000A7FBD4F8BC6040F009F9B389804633898F
:109760009B0740F18381304600215AF099FBFEF7B8
:109770007FFE00F01F00052800F0A88209F018FD08
:10978000E66E002E00F0C9810022236F616E012079
:10979000B04794F884208CE7206E4FF40071FEF7F8
:1097A00087FE012800F0A481022800F0A881064667
:1097B000002800F0ED8194F88420531EDBB2022BC8
:1097C00000F22C81D4F80039616F5B1AC82B00F2CB
:1097D0002181A2F10807B7FA87F77F09384607B059
:1097E000BDE8F08FD4F8C00043F092FF0021084696
:1097F000FEF77EFE064609F09FFC012EDBD100231A
:10980000D4F8C00084F8793043F082FF40F2AB1105
:109810000820FEF76DFE052800F08281012800F087
:10982000018109F089FC94F87920002A00F0618216
:10983000022384F88430D4F8C00043F069FF94F820
:109840007930022B0CBF4FF08046002600213720D4
:10985000FEF74EFE31462920FEF74AFE064609F085
:109860006BFC002EA7D194F87930022B00F0A48174
:1098700084F87A60D4F8C00043F04AFF0021092040
:10988000FEF736FEB0B309F057FC94E70826FEF762
:10989000EFFDFF2800F03082013EF8D1636FD4F86D
:1098A0000029FA33934286D209F082FC94F884208E
:1098B000FFE6FEF7DDFDFF284FF0080605D0013E6C
:1098C000ECD0FEF7D5FDFF28F9D1D4F88030002286
:1098D000012B84F8782040F21582E26F08210132D2
:1098E000013BC4E91F2384F884100A4671E700BFD6
:1098F000E01B0020C7481021FEF7DAFD06460028CD
:10990000C1D101217F20FEF703FC01288046BAD196
:1099100030460221FEF7FCFB002800F0B881012848
:10992000B1D116213A20FEF7F3FB01308002C4F8D2
:10993000880009F001FCD4F8C00043F0E9FE0021E2
:109940000A20FEF7D5FD002840F08381032384F828
:109950008430102102A8FEF7ABFD00287FF42BAF66
:109960009DF815309DF816109DF810209DF809609F
:109970009DF80A001B01DBB243EA111303F5FA63F9
:10998000A4F89A30DDF8113001F00F0184F89C1032
:109990001BBA110902F00F0240EA062084F8981061
:1099A00084F899209DF808109DF80B20C4F8943095
:1099B000039BC4F89030A4F88C0084F88E1084F8CF
:1099C0008F2009F0B9FB94F87A3073B9D4F8C0004D
:1099D00043F09EFE4FF400711020FEF789FD06460D
:1099E00009F0AAFB002E7FF45FAFD4F8BC0004217D
:1099F00057F03AFA002204233846C4F8802084F84D
:109A0000843007B0BDE8F08F384684F8847007B022
:109A1000BDE8F08F09F0CCFB94F88420042A7FF491
:109A2000D8AEDBE6D4F8BC600DF1080AB3893B463A
:109A30004FF0040B57464FF0FF099A463FF096FF50
:109A40008046338998073AD5A6F80C903FF08EFFF0
:109A500080463389D90744D5B3899BB20FB107F843
:109A6000013BBBF1010BE9D1574632E03FF07EFFED
:109A7000A0EB0800A8427FF772AE304645F0A2F98D
:109A800075E63FF073FFA0EB0800A8427FF759AEE0
:109A9000304645F097F95CE63FF068FFA0EB09001F
:109AA000A8427FF72DAE304645F08CF93BE63FF0FB
:109AB0005DFFA0EB0800A8427FF72DAEF3E73FF073
:109AC00055FFA0EB0800A842BBDD3046574645F0E5
:109AD00079F99DF80B30AB2B04BF022384F8793061
:109AE0009FE63FF043FFA0EB0800A842B1DDECE7A2
:109AF000636FD4F8002964339342BFF45CAE09F07D
:109B00001BFB09F055FBE66E3EB100221046236FA9
:109B1000616EB04794F88420CBE594F88420C8E5C2
:109B200084F879607DE6D4F8C8303B485968D3F8AA
:109B30001CE03A4E3A4B994288BF30461EF0005F17
:109B400000F095804668DFF8DCC006EA0E0616EAEB
:109B50000C0F3FF43EAE0EEA0C03C3600B68D4F862
:109B6000BC6023F001030B603389D80703D5B389A8
:109B70003389D907FBD433899A07FCD533891B066F
:109B8000F9D4B38823F002031B041B0CB380D4E583
:109B900009F0D2FAE56E84F87860042384F8843002
:109BA000002D3FF41BAED4E91821236F3046A8479F
:109BB00094F88420531E01E6D4F8C00043F0A8FDB9
:109BC00031463A20FEF794FCD4F8BC6001900DF1C8
:109BD000080AB3893B464FF0040B57464FF0FF0984
:109BE0009A463FF0C3FE804633899A071CD5A6F8F3
:109BF0000C903FF0BBFE80463389DB0730D5B3893C
:109C00009BB20FB107F8013BBBF1010BE9D15746FD
:109C100014E000BF801C002000600240006402408D
:109C20000F6402407D0F7D0F3FF0A0FEA0EB080007
:109C3000A842D9DD3046574645F0C4F8019B43B9E8
:109C400009F07AFA029B1BBAC3F3807384F87A3066
:109C500010E609F071FA09F0ABFA94F8842028E5CF
:109C60003FF084FEA0EB0800A842C5DDE2E70668ED
:109C7000DFF8B0C006EA0E0616EA0C0F3FF4A9ADF5
:109C80000EEA0C03836069E74FF0FF0835E5042115
:109C90002C20FEF73DFA032106464E20FEF738FA47
:109CA0000C2181463620FEF733FA09F10209431CE4
:109CB00003FA09F308FA06F6A3FB0601430A43EA8E
:109CC000C153C4F8883009F037FA34E6E56ED4F8A9
:109CD00000396367072284F88420002D3FF479ADB2
:109CE000D4E91821236F0120A84794F88420531E3B
:109CF00064E584F884206CE509F01EFA042384F8F6
:109D000084306BE508D0042384F8843009F014FA19
:109D100094F88420531E51E5FEF748FC02287FF496
:109D20004AADB0E57D0F7D0F2DE9F04FC14C94F8A1
:109D3000581183B00546C1F34001D4F8600143F0E7
:109D4000F3FC94F85811D4F85C01C94301F0010107
:109D50006F1E43F0E9FCFBB20193002D00F0D080B0
:109D6000B54EDFF8DC82B54D4FF01009D4F8600134
:109D700043F0BEFCD4F85C0143F0BAFCB4F868319F
:109D8000002B40F04E8194F86A11D4F86C0143F036
:109D9000CBFC4FF0FA0A4FF47A710120D8F8043066
:109DA000C3F30803002B40F00F81EFF31183002B66
:109DB00040F00A81D6F80029D5F808C0D6F8003955
:109DC0009A42F7D1D4F890319C45F3D8D4F88C71ED
:109DD00001FB07F3A3EB0C03B3FBF7F301FB023228
:109DE000D8F80430C3F30803002B40F0AB80EFF346
:109DF0001183002B40F0A680D6F80039D5F808B0C2
:109E0000D6F80079BB42F7D1D4F89071BB45F3D8AE
:109E1000D4F88C7101FB07FCACEB0B0CBCFBF7FC22
:109E200001FB03C39B1AB3F57A7FD9D3BAF1010AB8
:109E3000B4D1D4F8600143F05BFCD4F85C0143F08A
:109E400057FCB4F86831002B40F0DF8094F86A11B9
:109E5000D4F86C0181F0010143F066FCFA204FF464
:109E60007A714FF0010CD8F80430C3F30803002BCB
:109E700040F08980EFF31183002B40F08480D6F806
:109E80000029D5F808E0D6F800399A42F7D1D4F87D
:109E900090319E45F3D8D4F88CA101FB0AF3A3EBD3
:109EA0000E03B3FBFAF301FB0232D8F80430C3F31C
:109EB000080343BBEFF311832BBBD6F80039D5F869
:109EC00008B0D6F80079BB42F7D1D4F89071BB4501
:109ED000F3D8D4F88CA101FB0AFEAEEB0B0EBEFB4F
:109EE000FAFE01FB03E39B1AB3F57A7FDDD3013859
:109EF000B9D1019B5F1EFBB2FF2B01937FF436AFFC
:109F000003B0BDE8F08FEFF3118A89F31288AF68D0
:109F10002B68DB0344BFC4F888C1AF68D6F80039AA
:109F2000D4F888E15FFA8AFA8AF31188D4F88CA110
:109F3000734401FB0AFEAEEB070EBEFBFAFE01FB0B
:109F400003E3D0E7EFF3118E89F31288D5F808B058
:109F50002B68DF0344BFC4F88801D5F808B0D6F8F1
:109F60000039D4F888C15FFA8EFE8EF31188D4F8D8
:109F70008C71634401FB07FCACEB0B0CBCFBF7FCE6
:109F800001FB03C34EE7EFF3118E89F31288D5F876
:109F900008A02B68DA0344BFC4F888C1D5F808A02C
:109FA000D6F80039D4F888215FFA8EFE8EF3118836
:109FB000D4F88CE11A4401FB0EF3A3EB0A03B3FBC4
:109FC000FEF301FB023270E7EFF3118C89F3128884
:109FD000D5F808E02B68DB0344BFC4F88801D5F846
:109FE00008E0D6F80039D4F888215FFA8CFC8CF3AD
:109FF0001188D4F88C711A4401FB07F3A3EB0E030C
:10A00000B3FBF7F301FB0232EAE6D4F88431002B0C
:10A010003FF424AFD4F87031C3F800A084F881A1D4
:10A020001CE7D4F88431002B3FF4B3AE3FF08AFD37
:10A03000AFE600BFD03D0020E01B002010E000E0B4
:10A0400000ED00E02DE9F04FBD4CBE4E94F85811E4
:10A05000D4F86001DFF8F482BB4D83B0C1F3400156
:10A0600043F062FB94F85811D4F85C01C94301F045
:10A07000010143F059FB052301934FF01009D4F877
:10A08000600143F035FBD4F85C0143F031FBB4F8D8
:10A090006831002B40F04C8194F86A11D4F86C01BF
:10A0A00043F042FB32274FF47A710120D8F8043094
:10A0B000C3F30803002B40F00F81EFF31183002B53
:10A0C00040F00A81D6F80029D5F808C0D6F8003942
:10A0D0009A42F7D1D4F890319C45F3D8D4F88CE16A
:10A0E00001FB0EF3A3EB0C03B3FBFEF301FB023207
:10A0F000D8F80430C3F30803002B40F0AB80EFF333
:10A100001183002B40F0A680D6F80039D5F808B0AE
:10A11000D6F800C96345F7D1D4F890C1E345F3D828
:10A12000D4F88CE101FB0EFCACEB0B0CBCFBFEFC91
:10A1300001FB03C39B1AB3F57A7FD9D3013FB5D195
:10A14000D4F8600143F0D4FAD4F85C0143F0D0FABB
:10A15000B4F86831002B40F0E08094F86A11D4F82C
:10A160006C0181F0010143F0DFFA32204FF47A7183
:10A170000127D8F80430C3F30803002B40F08B808C
:10A18000EFF31183002B40F08680D6F80029D5F834
:10A1900008E0D6F800399A42F7D1D4F890319E45BC
:10A1A000F3D8D4F88CA101FB0AF3A3EB0E03B3FBA5
:10A1B000FAF301FB0232D8F80430C3F3080343BBBF
:10A1C000EFF311832BBBD6F80039D5F808B0D6F8D9
:10A1D00000E97345F7D1D4F890E1F345F3D8D4F80A
:10A1E0008CA101FB0AFEAEEB0B0EBEFBFAFE01FBDF
:10A1F00003E39B1AB3F57A7FDDD30138B9D1019B14
:10A200005F1E17F0FF0301937FF439AF03B0BDE881
:10A21000F08FEFF3118A89F31288D5F808B02B6814
:10A22000DB0344BFC4F88871D5F808B0D6F800390C
:10A23000D4F888E15FFA8AFA8AF31188D4F88CA1FD
:10A24000734401FB0AFEAEEB0B0EBEFBFAFE01FBF4
:10A2500003E3CEE7EFF3118E89F31288D5F808B047
:10A260002B68DB0344BFC4F88801D5F808B0D6F8E2
:10A270000039D4F888C15FFA8EFE8EF31188D4F8C5
:10A280008CE1634401FB0EFCACEB0B0CBCFBFEFC55
:10A2900001FB03C34EE7EFF3118E89F31288D5F863
:10A2A00008A02B68DA0344BFC4F88871D5F808A069
:10A2B000D6F80039D4F888215FFA8EFE8EF3118823
:10A2C000D4F88CE11A4401FB0EF3A3EB0A03B3FBB1
:10A2D000FEF301FB02326EE7EFF3118C89F3128873
:10A2E000D5F808E02B68DA0344BFC4F88801D5F834
:10A2F00008E0D6F80039D4F888215FFA8CFC8CF39A
:10A300001188D4F88CC11A4401FB0CF3A3EB0E03A3
:10A31000B3FBFCF301FB0232EAE6D4F88431002BF4
:10A320003FF423AFD4F870311F6084F881711CE7CB
:10A33000D4F88431002B3FF4B5AE3FF003FCB1E616
:10A34000D03D0020E01B002010E000E000ED00E028
:10A350000E4B30B4DB68427801780D4CDB43C3F31D
:10A360000223C3F10403DBB202FA03F360181B01FA
:10A3700001F01F050122490903F0F003AA4080F80B
:10A38000003344F8212030BC704700BF00ED00E0EE
:10A3900000E100E000F01F0240090123032803FA56
:10A3A00002F304D004280CD0022805D07047074AD5
:10A3B000116C0B4313647047044A516C0B43536494
:10A3C0007047024A116B0B43136370470038024019
:10A3D00000285FD00368374A2DE9F04103F13F447C
:10A3E00004F57E0402EB9422012492F8C42002F0CA
:10A3F0001F055209032A04FA05F456D0042A4FD047
:10A40000022A48D08588B5FA85F0C0F11F00C0F354
:10A41000CC0603EB860600F0070082000F24306AAA
:10A42000944020EA04003062306A01FA02F20243EA
:10A43000002132624FF0010E0A464FF0030C022752
:10A440000EFA02F838EA050002F101021CD1186880
:10A450000CFA01F420EA04001860186807FA01F603
:10A4600006431E609E6826EA04069E60986898600F
:10A47000586820EA0800586058685860D86820EA90
:10A480000400D860D868D860102A01F10201D7D141
:10A49000BDE8F0817047084A556C2C435464B1E71D
:10A4A000054A156B2C431463ACE7034A156C2C4327
:10A4B0001464A7E768A40608003802402DE9F041BB
:10A4C0000378012B84B00446164635D0022B24D1E4
:10A4D000836841F0800113B11A689B8853836568D3
:10A4E00003913FF043FAAB890399074642F20F7894
:10A4F0002B899B0715D5284659F0D2FC01236068AB
:10A50000324600215AF0C8FDA368FBB11A689B8847
:10A510001383012004B0BDE8F081002004B0BDE841
:10A52000F08103913FF022FAC31B43450399DFDD1D
:10A53000284644F047FCE1E700920A46417990F949
:10A5400004005BF077F904B0BDE8F0810120E5E795
:10A5500058B183884FF00042B3FA83F332FA03F321
:10A5600003D002490A6813430B607047003C014066
:10A57000134B0268196821EA02011960596821EA3F
:10A580000201596019680A431A609968026821EA51
:10A5900002019960D96821EA0201D9604179102944
:10A5A00007D001F1804303F59E3319680A431A600E
:10A5B0007047996811439960D9680A43DA60704717
:10A5C000003C0140002864D0F0B58388B3FA83F3DF
:10A5D000202B0A4685B00446C3F11F0143D02D4D00
:10A5E0002D4E05EB81037718C3F89421002197F8CD
:10A5F000CC703EF099FCB4F804C02268274CBCFA39
:10A600008CFCCCF11F0303F0FC0101F1804101F54A
:10A610009C3103F0030398004FF00F0E02F13F430B
:10A620008A680EFA00FE22EA0E0203F57E038A60B3
:10A63000C3F38723834088684FF0004222FA0CF26C
:10A6400003433D448B6002A8626101234FF4006123
:10A650008DF80E300292ADF80C10FFF789FF95F8D7
:10A66000D431F02B01D805B0F0BD3E44F02196F86E
:10A67000DC308DF8043003224FF4807301A885F894
:10A68000D4118DF80520ADF80630FFF761FE05B056
:10A69000F0BD7047D03D002068A40608003C014092
:10A6A00010B4B8B10D4CD4F8DC31102B05D15DF8E5
:10A6B000044B052100203EF01FBF03EB4302224460
:10A6C00082F8E11101210B4482F8E00182F8E211E5
:10A6D000C4F8DC315DF8044B704700BFD03D00206A
:10A6E000C0782021DCE700BF2DE9F04FDFF8A4A3FC
:10A6F0002DED028B9AF824120022CAE98522CAE9BC
:10A70000872297B0CAF8102219B19AF825228AF840
:10A7100010229AF826221AB19AF827228AF81F22C4
:10A720009AF82A221AB19AF82B228AF81A229AF851
:10A7300028221AB19AF829228AF815229AF82C327E
:10A7400005935A1ED3B257B203937B1C00F0AA8024
:10A75000C54AC64E52F83790029602EBC702002354
:10A760001279019308EE102A1D4634469846267841
:10A770003946304644F00EFF83463046BBF1000FA9
:10A780001ED042F0D5FCEA1D1321D2B220B14FF009
:10A79000000E827180F807E03EF0C6FB207844F09E
:10A7A00023FF4FF0070308F1010223714FF001036B
:10A7B00084F802806070CDF804B05FFA82F8E3702C
:10A7C0000135042D04F10504D1D118EE100A029EC2
:10A7D000CDF81080FFF7DEFDA549A64A4868024083
:10A7E00042F440324A600FB9019B5BB9A24C482049
:10A7F000FFF7D0FD204602215BF0DCF9A26842F0B1
:10A800000102A2609A489C4A4168BAF82E4241F47B
:10A8100000014160516821F480515160916B21F435
:10A82000401141F480119163D16841F46001D1601D
:10A83000956B85F44011C1F3015101EB81011F209B
:10A8400000FA01FC25EA0C0C112505FA01F141EA98
:10A850000C019163D16841F0E061D160956BC5F363
:10A860000151C1F10401C9B201EB810188404FF0EF
:10A87000120C25EA00000CFA01F108439063E4B1E0
:10A88000BAF83012CAF83842A1B1BAF83222CAF87E
:10A890003C1262B1019B7948521A90FBF2F2CAF85D
:10A8A00040226BB917B0BDEC028BBDE8F08F744A43
:10A8B0001288EFE7734A1188E7E7734A1488DFE7E5
:10A8C000484604995BF076F9684B012003F11408BF
:10A8D0000723F278441CE4B252B375783279A5F1BB
:10A8E0000A0101EB410105EB450C092D03FA01FEBC
:10A8F00003FA0CFB02FA01F140F29F80D9F80C2018
:10A9000022EA0E0E41EA0E01C9F80C10421E02EBBB
:10A9100082021F21062801FA02FC05FA02F272D80F
:10A92000D9F8341021EA0C010A432046C9F8342032
:10A930000536B045CDD1D9F80820039942F400720C
:10A94000C9F80820D9F8082042F48072C9F8082014
:10A95000D9F80820574442F00102C9F8082097F9B5
:10A96000342202203FF0ECFB044600289AD04668CF
:10A9700030463FF0D3FB454B421E03EB421393F8A6
:10A980004850002D8ED1059983F84910062283F88E
:10A990004820002886D030463FF0C0FB57F036FFF5
:10A9A000606809F02FFC07A809F0EEFB049EA2687E
:10A9B00037480792012E8CBF4FF4806300230D931C
:10A9C00009F14C034FF48072CDE90A5608930990BF
:10A9D0004FF4003360680C9507A94FF400674FF4FB
:10A9E0000056CDE91023CDE90E7609F0DFFB626851
:10A9F000136843F001031360D9F8083043F0804333
:10AA0000C9F808304EE7C11FA0F10D0201EB81012A
:10AA10004FF01F0E02EB82020C280EFA01FC0EFA18
:10AA200002F005FA01F113D8D9F8302022EA0C021D
:10AA300011432046C9F830107AE7D9F8101002FA0D
:10AA40000CF221EA0B0B42EA0B02C9F810205DE779
:10AA5000D9F82C1005FA02F221EA00010A43204637
:10AA6000C9F82C2064E700BF4CA50608E03F002091
:10AA700000230140E030FCFF00200140803801004D
:10AA80002E7AFF1F2C7AFF1F2A7AFF1F98010020C1
:10AA900014400020D03D00202DE9F84F2E4F00EB50
:10AAA000C00407EB8404D4F850622EB1054694F834
:10AAB000610200F0FF0820B14FF000084046BDE8F9
:10AAC000F88F89469A4693463EF050FF4FEA490177
:10AAD0000123C9B284F8621284F863B284F8653243
:10AAE00084F8668284F8643284F8613284F8608283
:10AAF000B288C4F868A291058146C4F86CA21DD43E
:10AB00003388DA0510D442F20F7405E03EF02EFFD0
:10AB1000A0EB0903A34215DC33889B05F6D43388E8
:10AB20009BB243F480733380B3889BB243F4407389
:10AB30004FF00108B3804046BDE8F88F9846404684
:10AB4000BDE8F88FB7F8B83201339BB22846A7F8B2
:10AB5000B8325AF0CDFBB1E7D03D002070B5464E7B
:10AB600096F8BA4204EB440306EBC303650093F87E
:10AB7000BC32032B6ED8DFE803F059291E022544AE
:10AB800006EBC505D5F8C002002870D196F81C3335
:10AB90009C425FD0013404F00302934286F8BA224B
:10ABA00058D002EB420406EBC4040223C4F8C002EE
:10ABB00084F8BC3270BD2B1906EBC303D3F8C02256
:10ABC00072B1013AC3F8C022002070BD2B1906EB08
:10ABD000C303D3F8C022002AF3D1022283F8BC2297
:10ABE000254406EBC50595F8C832013BDBB285F874
:10ABF000C8328BBB214B96F81C63D3F83012D5F8C2
:10AC0000C402621C02F003024B1E0324B24203443E
:10AC100085F8BC42B3FBF1F0C5F8C0021AD09942E6
:10AC200018D80138C5F8C002012070BD44F0BCFB43
:10AC300080B1124B2C44D3F8302206EBC40401211E
:10AC400002F51C5384F8BC120F33B3FBF2F3C4F8C3
:10AC5000C03270BD012070BD084BD3F830220120F6
:10AC600002F2E733B3FBF2F3C5F8C03270BD01382E
:10AC7000C5F8C002002070BDD03D00209801002022
:10AC8000054B93F81D23002AFBD1D3F8803E0349DE
:10AC90001B6801F10C001847D03D0020F040002057
:10ACA0002DE9F84F3249DFF8D4B091F8F9100124BA
:10ACB0000229074619461046CBF82C404FF00002F7
:10ACC0002C4C1D4618BF7F02FDF79AF92A4B636290
:10ACD0006B02A362E36A40F2FF5943F093034FF41F
:10ACE00000704FF48A62E3620121C4F83890A060DA
:10ACF0001020E26056F0E4FC012D40F251434E4634
:10AD0000C4F83890CA4640F252488EBF4FF012093C
:10AD100098464FF011090A25C4F838A00121A76010
:10AD20004846C4F80C8056F0CBFC03464FF0000CAC
:10AD300040F2774201213720A6632BB90023184641
:10AD4000CBF82830BDE8F88FA663C4F808C0E260ED
:10AD500056F0B6FC013DA6630028EFD015F0FF05C4
:10AD6000DAD10346CBF82C50CBF82830BDE8F88F69
:10AD7000D03D0020002C014000E1F505E01B002043
:10AD80002DE9F843184C94F88460042E0546894652
:10AD900090461F4608D0082E02D00020BDE8F88358
:10ADA000FEF766F90228F8D101234A462846002119
:10ADB000FFF776FF50B1FEF7E5F9E56E002DECD018
:10ADC0000022236F616E1046A847E6E7D4F80039E9
:10ADD000C4F860900522C4E91B87656684F8842066
:10ADE00063670120BDE8F883E01B00202DE9F84FE0
:10ADF0002F49DFF8C49091F8F9101E4602292D4B17
:10AE000007464FF0010418BF4702012E40F259488F
:10AE10001C6398BF4FF48B683B469346474640F20D
:10AE2000FF55B0468CBF4FF0190A4FF0180A0A249C
:10AE30001E4640F2FF53C9F838300121C9F80860B6
:10AE40005046C9F80C7056F03BFC03464FF0000C1E
:10AE500040F2774201213720C9F83850A3B958464B
:10AE600041460122FDF7CCF84646134A134B536284
:10AE700076029662D36A43F09103D3620D4B0021B0
:10AE800008469962BDE8F88FC9F83850C9F808C07B
:10AE9000C9F80C2056F014FC013CC9F838500028C1
:10AEA000DDD014F0FF04C4D1024B1C63BDE8F88F61
:10AEB000D03D0020E01B0020002C014000E1F50502
:10AEC0002DE9F047374C82B005460E4617469846A6
:10AED00094F8840004280CD0082806D1E36FAB4214
:10AEE00007D0FEF7C5F80228F2D0012002B0BDE875
:10AEF000F087DFF8B8A02666DAF8F0906566C9F347
:10AF00004F210F294FEA592223D8D4F880300193DA
:10AF1000FBB194F8CD00E0B1B9F5005F13D0224841
:10AF200031464FF4007248445FF0ECF909F50072C5
:10AF3000C2F34F211029CAF8F0204FEA522202D062
:10AF4000019B012B21D192B2013A174EAD1A0B464B
:10AF500000E0012332462846062601250021E76647
:10AF6000C4F8708084F8685084F88460FFF73EFF6E
:10AF70000028BBD0FEF706F9E66E86B12846236F9F
:10AF8000616E0022B0470320B0E7E26F013B01325F
:10AF90000421C4E91F2384F884100220A6E70320BB
:10AFA000A4E700BFE01B0020DC690020D03D0020AA
:10AFB0002DE9F047274D95F8843E022B82B00446D8
:10AFC0000F46164611D0012B0BD10091134695F870
:10AFD000891E024695F9880E5AF02CFC02B0BDE895
:10AFE000F087002002B0BDE8F087D5F88C3E13B1A1
:10AFF0001A689B885383D5F888AE3EF0B7FCBAF840
:10B000000C30804642F20F79BAF808309B0714D50D
:10B010002146504658F044FF3346D5F8880E3A464C
:10B0200000215AF039F8D5F88C3E83B11A689B8814
:10B030001383012002B0BDE8F0873EF097FCA0EB3F
:10B0400008034B45E0DD504643F0BCFEE4E7012039
:10B05000C4E700BFD03D0020F0B50578022D83B0D5
:10B06000044615D0012D02D0002003B0F0BD90F9A8
:10B070000400274B421C83F8C45EF5D00328F3DCA0
:10B080000A46617903F6C46303B0BDE8F04003E506
:10B09000836813B11A689B885383656801913EF0F9
:10B0A00065FCAB890199064642F20F772B89980718
:10B0B00018D5284658F0F4FE65683EF057FCAB8979
:10B0C000064642F20F772B89990716D528460121AB
:10B0D00058F0E6FEA368CBB11A689B881383012061
:10B0E00003B0F0BD01913EF041FC831BBB420199CE
:10B0F000DCDD284643F066FEDEE73EF037FC831BCE
:10B10000BB42E0DD284643F05DFEE3E70120ACE70B
:10B11000D03D002010B50C4C94F8843E022B11D188
:10B12000D4F88C0E42F0FAFAD4F88C0E08B1212330
:10B13000C38001213DF0F8FEBDE81040034808211E
:10B1400043F0F6BD10BD00BFD03D0020544C0020A0
:10B1500073B50D4E05460C46FF230A4601463046A0
:10B160008DF8073043F006FF01230DF1070245F08B
:10B170008001304643F0CCFE9DF80700031B584287
:10B18000584102B070BD00BF544C0020094B93F8E9
:10B19000B234042B08D9053B032B08D801231A46E7
:10B1A00000B103701046704700230122F8E7002326
:10B1B0001A46F5E7D82C0020F0B40D6800240CE006
:10B1C000BCF1050F18D8A0F137030A2B14D104EBFA
:10B1D000840415F8010B03EB4404A0F13003DEB244
:10B1E000092EA0F16107A0F1410CF0D9052FE7D895
:10B1F000A0F157030A2BEAD00D601460F0BC704731
:10B200009FED737A07EE901A20EE070AF8EE677A40
:10B2100027EE800AFDEEC07A17EE903A2033402BDD
:10B2200000F2C780DFED6B7AB4EEE70AF1EE10FAB8
:10B23000F0EE407A0CDD9FED686ADFED686AB0EEF3
:10B24000677AB4EEE67AF1EE10FA77EEC67AF6DCBB
:10B250009FED637AF4EEC77AF1EE10FA0CD59FED0C
:10B260005E6ADFED606AB0EE677AB4EEE67AF1EE20
:10B2700010FA77EE867AF6D49FED5B7AF4EEC77A11
:10B28000F1EE10FA00F38D809FED587AF4EEC77A54
:10B29000F1EE10FA44BF9FED527A77EE677A27EE0F
:10B2A000A76ADFED535A9FED537ADFED536AA6EE9E
:10B2B000257A67EE865AE6EE076AB6EE007AE5EE84
:10B2C000A67A27EE877ADFED486A70EE267ABDEE21
:10B2D000E76A16EE103A2033402B67D8B4EEE60A40
:10B2E000F1EE10FA0CDDDFED3C5A9FED3C6AF0EE1A
:10B2F000676AF4EEC66AF1EE10FA77EEE57AF6DCEC
:10B30000DFED376AF4EEE67AF1EE10FA0CD5DFEDF8
:10B31000325A9FED346AF0EE676AF4EEC66AF1EED7
:10B3200010FA77EEA57AF6D4DFED2F6AF4EEE67A1E
:10B33000F1EE10FA40DDDFED276A76EEE77A67EE90
:10B34000A75A9FED2B5A9FED2B6ADFED2B6AA5EED6
:10B35000856A27EEA55AE5EE866AB8EE006AE5EE44
:10B36000267A67EE867AC7EE206A002383614361FE
:10B370000362C361B7EE006A76EE865A76EE666ABD
:10B3800086EE257A67EE277A66EE876AC0ED017A47
:10B39000C0ED037A80ED007A80ED027AC0ED046A98
:10B3A00070479FED0C7A77EE677A78E7DFED137AD6
:10B3B000D9E79FED127A86E7DFED0C6AF4EEE67AC4
:10B3C000F1EE10FA44BFDFED066A76EEE77AB6E7F3
:10B3D00027D4D236DB0F4940DB0FC940E4CB1641FE
:10B3E000DB0F49C0E4CB16C1DB0FC93FDB0FC9BF80
:10B3F00092E741B99730083C15A82ABE000000002A
:10B400002DE9F047944C82B094F8C53E0190002B92
:10B4100040F01D8194F8E83EB4F8EA2EDFED8F6A23
:10B42000B4F8EC9EA4F8FC9E07EE103AB8EEC76A9A
:10B43000B7EE007A07EE902AF0EE475AB4F8E62EFF
:10B44000E6EE665A4FEA49059542A6EE267AB8BF5F
:10B45000154604F56F61F8EEE77A04F6F46267EEDC
:10B46000A67AC1ED005AAEB204F6F86182ED007A18
:10B470000122A4F8FE6EC1ED007A84F8C52E002BDF
